:100000000C9435000C945D000C945D000C945D0024
:100010000C945D000C945D000C945D000C945D00EC
:100020000C945D000C945D000C945D000C945D00DC
:100030000C945D000C945D000C945D000C945D00CC
:100040000C948E020C945D000C945C020C943602AD
:100050000C945D000C945D000C945D000C945D00AC
:100060000C945D000C945D00CF0311241FBECFEFF4
:10007000D8E0DEBFCDBF11E0A0E0B1E0E6E5F8E0FA
:1000800002C005900D92A632B107D9F721E0A6E291
:10009000B1E001C01D92AA3DB207E1F710E0C5E34F
:1000A000D0E004C02197FE010E941E04C433D10792
:1000B000C9F70E94D8020C9429040C940000CF9236
:1000C000DF92EF92FF920F931F93CF93DF936C0118
:1000D0007A018B01C0E0D0E0CE15DF0581F0D801B8
:1000E0006D918D01D601ED91FC910190F081E02D93
:1000F000C6010995892B11F02196EECF7E01C7012B
:10010000DF91CF911F910F91FF90EF90DF90CF90F3
:100110000895089580E090E00895FC01538D448D8A
:10012000252F30E0842F90E0821B930B541710F0A2
:10013000CF96089501970895FC01918D828D9817AF
:1001400061F0828DDF01A80FB11D5D968C91928DBB
:100150009F5F9F73928F90E008958FEF9FEF0895B8
:10016000FC01918D828D981731F0828DE80FF11D81
:10017000858D90E008958FEF9FEF0895FC01918D9C
:10018000228D892F90E0805C9F4F821B91098F7395
:10019000992708958DE391E00E94BE0021E0892B0C
:1001A00009F420E0822F0895FC01848DDF01A80F5F
:1001B000B11DA35ABF4F2C91848D90E001968F738F
:1001C0009927848FA689B7892C93A089B1898C91AE
:1001D000837080648C93938D848D981306C00288FD
:1001E000F389E02D80818F7D80830895EF92FF92C7
:1001F0000F931F93CF93DF93EC0181E0888F9B8D4A
:100200008C8D981305C0E889F989808185FD26C009
:10021000F62E0B8D10E00F5F1F4F0F731127E02E8E
:100220008C8DE8120CC00FB607FCFACFE889F9896B
:10023000808185FFF5CFCE010E94D400F1CF8B8D58
:10024000FE01E80FF11DE35AFF4FF0829FB7F894CB
:100250000B8FEA89FB89808180620AC09FB7F8947E
:10026000EE89FF896083E889F989808183708064E1
:1002700080839FBF81E090E0DF91CF911F910F912C
:10028000FF90EF900895CF93DF93EC01888D882342
:10029000C9F0EA89FB89808185FD05C0A889B989F3
:1002A0008C9186FD0FC00FB607FCF5CF808185FFCE
:1002B000F2CFA889B9898C9185FFEDCFCE010E943C
:1002C000D400E7CFDF91CF91089580E090E0892BB3
:1002D00029F00E94CA0081110C94000008953FB7D4
:1002E000F8948091330190913401A0913501B0913F
:1002F000360126B5A89B05C02F3F19F00196A11D18
:10030000B11D3FBFBA2FA92F982F8827820F911DAB
:10031000A11DB11DBC01CD0142E0660F771F881FF2
:10032000991F4A95D1F70895CF92DF92EF92FF92ED
:100330000F931F938FB7F894C0902F01D090300186
:10034000E0903101F09032018FBF00912A011091AD
:100350002B0120912C0130912D01C01AD10AE20A03
:10036000F30A6091260170912701809128019091F4
:10037000290148EEC41643E0D406E104F104D0F0AC
:10038000DC01CB010196A11DB11D80932601909344
:100390002701A0932801B093290108511C4F2F4F2A
:1003A0003F4F00932A0110932B0120932C0130938F
:1003B0002D01C0CF1F910F91FF90EF90DF90CF9054
:1003C0000895009769F0FC0101900020E9F731974A
:1003D000AF01481B590BBC018DE391E00C945F0009
:1003E00080E090E008958F929F92AF92BF920F931A
:1003F0001F93CF93DF93CDB7DEB7A1970FB6F894D5
:10040000DEBF0FBECDBF19A2423008F44AE08E0114
:100410000F5D1F4F842E912CA12CB12CA5019401AE
:100420000E94FC03E62FB901CA0101501109EA300C
:1004300014F4E05D01C0E95CD801EC93232B242B7C
:10044000252B61F7C8010E94E101A1960FB6F8942F
:10045000DEBF0FBECDBFDF91CF911F910F91BF9037
:10046000AF909F908F9008950E9424041F920F9246
:100470000FB60F9211242F933F934F935F936F9377
:100480007F938F939F93AF93BF93EF93FF938DE3EE
:1004900091E00E94D400FF91EF91BF91AF919F91A5
:1004A0008F917F916F915F914F913F912F910F901D
:1004B0000FBE0F901F9018951F920F920FB60F92BC
:1004C00011242F938F939F93EF93FF93E0914D010E
:1004D000F0914E018081E0915301F091540182FD31
:1004E00012C09081809156018F5F8F7320915701C8
:1004F000821751F0E0915601F0E0E35CFE4F958FDA
:100500008093560101C08081FF91EF919F918F915F
:100510002F910F900FBE0F901F9018951F920F9262
:100520000FB60F9211242F933F938F939F93AF9306
:10053000BF9380912F0190913001A0913101B09132
:10054000320130912E0123E0230F2D3720F4019644
:10055000A11DB11D05C026E8230F0296A11DB11DE6
:1005600020932E0180932F0190933001A0933101AD
:10057000B09332018091330190913401A091350103
:10058000B09136010196A11DB11D80933301909366
:100590003401A0933501B0933601BF91AF919F9183
:1005A0008F913F912F910F900FBE0F901F90189534
:1005B000789484B5826084BD84B5816084BD85B53E
:1005C000826085BD85B5816085BD80916E0081604A
:1005D00080936E00109281008091810082608093F0
:1005E00081008091810081608093810080918000F2
:1005F0008160809380008091B10084608093B1001D
:100600008091B00081608093B00080917A00846016
:1006100080937A0080917A00826080937A00809142
:100620007A00816080937A0080917A00806880935C
:100630007A001092C10010923C0110923B010E947E
:10064000940160933701709338018093390190933E
:100650003A01E0914D01F0914E0182E08083E091FA
:100660004901F0914A011082E0914B01F0914C0157
:100670008FEC808310925501E0915101F09152016D
:1006800086E08083E0914F01F0915001808180618C
:100690008083E0914F01F0915001808188608083D8
:1006A000E0914F01F0915001808180688083E0915A
:1006B0004F01F091500180818F7D808380913B01BB
:1006C00090913C01019690933C0180933B010E94E4
:1006D00094016093370170933801809339019093AE
:1006E0003A0182E191E00E94E101C0903B01D0908B
:1006F0003C010D2C000CEE08FF08F7FE0EC06DE269
:100700008DE391E00E94F60066277727CB016C19F4
:100710007D098E099F094AE003C04AE0C701B6017E
:100720000E94F3018DE191E00E94E10160913701A7
:10073000709138018091390190913A014AE00E940C
:10074000F30184E291E00E94E1010E946F014B01FC
:100750005C0188EEC82E83E0D82EE12CF12C0E949B
:100760006F01DC01CB0188199909AA09BB09883EF0
:100770009340A105B10598F321E0C21AD108E10820
:10078000F10888EE880E83E0981EA11CB11CC114EC
:10079000D104E104F10419F70E9465018FCFEDE364
:1007A000F1E01382128288EE93E0A0E0B0E084834F
:1007B0009583A683B78384E091E09183808385EC61
:1007C00090E09587848784EC90E09787868780EC1B
:1007D00090E0918B808B81EC90E0938B828B82EC0C
:1007E00090E0958B848B86EC90E0978B868B118EB6
:1007F000128E138E148E0895A1E21A2EAA1BBB1B13
:10080000FD010DC0AA1FBB1FEE1FFF1FA217B307DC
:10081000E407F50720F0A21BB30BE40BF50B661FF2
:10082000771F881F991F1A9469F7609570958095B6
:1008300090959B01AC01BD01CF010895EE0FFF1F04
:100840000590F491E02D099481E090E0F8940C94E7
:060850002904F894FFCF1B
:1008560000000000F6005F008D004301BE009C0012
:10086600B000436F6E7461646F723A200054696D14
:06087600653A20000A00B3
:00000001FF
