:100000000C9435000C945D000C945D000C945D0024
:100010000C945D000C945D000C945D000C945D00EC
:100020000C945D000C945D000C945D000C945D00DC
:100030000C945D000C945D000C945D000C945D00CC
:100040000C94DA030C945D000C94A8030C948203C6
:100050000C945D000C945D000C945D000C945D00AC
:100060000C945D000C945D00240411241FBECFEF9E
:10007000D8E0DEBFCDBF22E0ACE6B1E001C01D920A
:10008000A537B207E1F711E0A0E0B1E0E4E9FDE057
:1000900002C005900D92AC36B107D9F710E0C5E368
:1000A000D0E004C02197FE010E94BD06C433D107F1
:1000B000C9F70E9463040C94C8060C940000E0E9A0
:1000C000F1E0A089B18982E08C93A485B5851C926A
:1000D000A685B7858FEC8C93108EA489B58986E0B0
:1000E0008C93A289B3898C9180618C93A289B38906
:1000F0008C9188608C93A289B3898C9180688C9351
:100100000288F389E02D80818F7D80830895CF92CE
:10011000DF92EF92FF920F931F93CF93DF936C01C7
:100120007A018B01C0E0D0E0CE15DF0581F0D80167
:100130006D918D01D601ED91FC910190F081E02D42
:10014000C6010995892B11F02196EECF7E01C701DA
:10015000DF91CF911F910F91FF90EF90DF90CF90A3
:100160000895089580E090E00895FC01538D448D3A
:10017000252F30E0842F90E0821B930B541710F052
:10018000CF96089501970895FC01918D828D98175F
:1001900061F0828DDF01A80FB11D5D968C91928D6B
:1001A0009F5F9F73928F90E008958FEF9FEF089568
:1001B000FC01918D828D981731F0828DE80FF11D31
:1001C000858D90E008958FEF9FEF0895FC01918D4C
:1001D000228D892F90E0805C9F4F821B91098F7345
:1001E0009927089580E991E00E94E60021E0892B9B
:1001F00009F420E0822F0895FC01848DDF01A80F0F
:10020000B11DA35ABF4F2C91848D90E001968F733E
:100210009927848FA689B7892C93A089B1898C915D
:10022000837080648C93938D848D981306C00288AC
:10023000F389E02D80818F7D80830895EF92FF9276
:100240000F931F93CF93DF93EC0181E0888F9B8DF9
:100250008C8D981305C0E889F989808185FD26C0B9
:10026000F62E0B8D10E00F5F1F4F0F731127E02E3E
:100270008C8DE8120CC00FB607FCFACFE889F9891B
:10028000808185FFF5CFCE010E94FC00F1CF8B8DE0
:10029000FE01E80FF11DE35AFF4FF0829FB7F8947B
:1002A0000B8FEA89FB89808180620AC09FB7F8942E
:1002B000EE89FF896083E889F98980818370806491
:1002C00080839FBF81E090E0DF91CF911F910F91DC
:1002D000FF90EF900895CF93DF93EC01888D8823F2
:1002E000C9F0EA89FB89808185FD05C0A889B989A3
:1002F0008C9186FD0FC00FB607FCF5CF808185FF7E
:10030000F2CFA889B9898C9185FFEDCFCE010E94EB
:10031000FC00E7CFDF91CF91089580E090E0892B3A
:1003200029F00E94F20081110C94000008952FB76B
:10033000F89460917D0170917E0180917F01909190
:1003400080012FBF0895CF92DF92EF92FF920F931B
:100350001F930E94970100917401109175012091E3
:100360007601309177016B017C01C01AD10AE20A53
:10037000F30A609170017091710180917201909106
:10038000730148EEC41643E0D406E104F104D0F052
:10039000DC01CB010196A11DB11D809370019093EA
:1003A0007101A0937201B093730108511C4F2F4F3C
:1003B0003F4F0093740110937501209376013093A1
:1003C0007701C7CF1F910F91FF90EF90DF90CF90F3
:1003D00008954F925F926F927F928F929F92AF9209
:1003E000BF92CF92DF92EF92FF920F931F93CF9322
:1003F000DF934B015C0180916C0190916D01A091A4
:100400006E01B0916F0188159905AA05BB0509F425
:10041000D2C08CE3C82ED12CE12CF12CC501B40143
:10042000A70196010E94730660938101CA01B90178
:10043000A70196010E94730660938201C501B40171
:1004400020E13EE040E050E00E947306CA01B9019D
:1004500028E130E040E050E00E94730660938301A1
:10046000C501B40120E831E541E050E00E94730687
:1004700069017A01CA01B9016C5F7F4F8F4F9F4FAD
:1004800027E030E040E050E00E9473066F5F609329
:100490008401412C512C320140E004E610E0C0E917
:1004A000D1E0242F30E02E54384FF901E370FF27BC
:1004B000309789F4C901B8010E949506892B31F45F
:1004C000C901BE010E949506892B29F48EE691E0B0
:1004D000A0E0B0E004C08DE691E0A0E0B0E0480EFE
:1004E000591E6A1E7B1ED301C201AA27BB27C8164C
:1004F000D906EA06FB0610F04F5FD3CF4093870181
:10050000309799F4C90164E670E00E949506892B42
:1005100039F4C90160E971E00E949506892B29F43C
:100520008EE691E0A0E0B0E004C08DE691E0A0E0AE
:10053000B0E0481A590A6A0A7B0AC418D508E608C6
:10054000F708C90164E670E00E949506EC01C90154
:1005500060E971E00E949506A0E0B1E020E0213062
:1005600039F4309749F4209729F4009729F402C010
:100570004C9103C04DE101C04CE150E060E070E0FF
:10058000C416D506E606F70640F0C41AD50AE60AF0
:10059000F70A2F5F11962C3011F72F5F20938601F9
:1005A000C394C092850180926C0190926D01A092DB
:1005B0006E01B0926F01DF91CF911F910F91FF906B
:1005C000EF90DF90CF90BF90AF909F908F907F90F3
:1005D0006F905F904F9008950E94C306611571055A
:1005E00079F0FB0101900020E9F73197AF01461B3C
:1005F000570BDC01ED91FC910280F381E02D099411
:1006000080E090E008958F929F92AF92BF92EF9218
:10061000FF920F931F93CF93DF93CDB7DEB7A197D0
:100620000FB6F894DEBF0FBECDBF7C01FA01CB013F
:1006300019A2223008F42AE08E010F5D1F4F822E8E
:10064000912CA12CB12CBF01A50194010E9473062D
:10065000F901CA01015011096A3014F4605D01C04A
:10066000695CD8016C93232B242B252B61F7B801EF
:10067000C7010E94EE02A1960FB6F894DEBF0FBE2E
:10068000CDBFDF91CF911F910F91FF90EF90BF9061
:10069000AF909F908F900895CF92DF92EF92FF924C
:1006A000CF93DF936C01990FEE08FF08F7FE1BC094
:1006B0006DE280E991E00E941E01EC01442755277C
:1006C000BA014C195D096E097F092AE080E991E0C1
:1006D0000E9403038C0F9D1FDF91CF91FF90EF903D
:1006E000DF90CF9008952AE0B701A60180E991E05C
:1006F000DF91CF91FF90EF90DF90CF900C940303A8
:100700000C94EE021F920F920FB60F9211242F93AA
:100710003F934F935F936F937F938F939F93AF9389
:10072000BF93EF93FF9380E991E00E94FC00FF915B
:10073000EF91BF91AF919F918F917F916F915F9159
:100740004F913F912F910F900FBE0F901F901895D2
:100750001F920F920FB60F9211242F938F939F9396
:10076000EF93FF93E091A001F091A1018081E091CE
:10077000A601F091A70182FD12C090818091A9018C
:100780008F5F8F732091AA01821751F0E091A90128
:10079000F0E0E057FE4F958F8093A90101C0808162
:1007A000FF91EF919F918F912F910F900FBE0F901E
:1007B0001F9018951F920F920FB60F9211242F932E
:1007C0003F938F939F93AF93BF9380917D019091BF
:1007D0007E01A0917F01B091800130917C0123E0E6
:1007E000230F2D3720F40196A11DB11D05C026E869
:1007F000230F0296A11DB11D20937C0180937D01E2
:1008000090937E01A0937F01B09380018091780145
:1008100090917901A0917A01B0917B010196A11D7F
:10082000B11D8093780190937901A0937A01B093E0
:100830007B01BF91AF919F918F913F912F910F902D
:100840000FBE0F901F901895E0E9F1E0138212821D
:1008500088EE93E0A0E0B0E084839583A683B7831D
:1008600080E191E09183808385EC90E09587848797
:1008700084EC90E09787868780EC90E0918B808B6A
:1008800081EC90E0938B828B82EC90E0958B848B53
:1008900086EC90E0978B868B118E128E138E148EC1
:1008A000EDE2F2E016821782108611861286138618
:1008B0001486158616861786108A118A128A138A5C
:1008C000148A158A0895789484B5826084BD84B5AD
:1008D000816084BD85B5826085BD85B5816085BD3B
:1008E00080916E00816080936E00109281008091F3
:1008F000810082608093810080918100816080937B
:100900008100809180008160809380008091B1009F
:1009100084608093B1008091B00081608093B000CA
:1009200080917A00846080937A0080917A0082605E
:1009300080937A0080917A00816080937A00809120
:100940007A00806880937A001092C1001092710240
:1009500010927202109273021092740210922F027F
:100960001092300210923102109232020E949701CE
:100970006B017C014B015C0128EB820E2BE0921E87
:10098000A11CB11C0E9497016C157D058E059F0569
:1009900028F086169706A806B906A0F780E991E028
:1009A0009093700280936F020E945F000E949701F3
:1009B00060932F0270933002809331029093320241
:1009C0006EE171E080916F02909170020E9480034D
:1009D0000E9497016B017C014B015C013AE0830EA0
:1009E000911CA11CB11C0E9497016C157D058E0500
:1009F0009F0528F086169706A806B906A0F781E09D
:100A00008093430210928B0110928A010E94A301ED
:100A10000E94E9018091820190E090938901809386
:100A200088010E945F0084EF882E99249394A12C62
:100A3000B12C0E949701672B682B692B41F40E940F
:100A40009701623071058105910508F410C10E947B
:100A50009701C0908C01D0908D01E0908E01F090B4
:100A60008F016C157D058E059F0540F460938C0108
:100A700070938D0180938E0190938F01C0908C01B3
:100A8000D0908D01E0908E01F0908F019B01AC0120
:100A90002C193D094E095F0969017A013AEFC31625
:100AA000D104E104F10408F4E2C060938C01709376
:100AB0008D0180938E0190938F0180923B029092E2
:100AC0003C02A0923D02B0923E0210923F02109270
:100AD00040021092410210924202809133029091A2
:100AE0003402A0913502B091360280933702909380
:100AF0003802A0933902B0933A020E9497016093A2
:100B000033027093340280933502909336020E9430
:100B1000970160932F02709330028093310290937B
:100B200032020E9497016B017C0160E371E08091C9
:100B30006F02909170020E9480032AE041E050E031
:100B400060E070E080916F02909170020E94030358
:100B500067E371E080916F02909170020E948003C0
:100B60002AE0B701A60180916F02909170020E9465
:100B7000030369E371E080916F02909170020E941B
:100B800080038091330290913402A0913502B0919C
:100B90003602B701A601481B590B6A0B7B0B2AE0F2
:100BA00080916F02909170020E94030369E371E0EB
:100BB00080916F02909170020E94800340913302F5
:100BC0005091340260913502709136028091370263
:100BD00090913802A0913902B0913A02481B590B0A
:100BE0006A0B7B0B2AE080916F02909170020E9449
:100BF00003036BE371E080916F02909170020E9499
:100C000080030E949701AB01BC012AE080916F0232
:100C1000909170020E940303E0906F02F0907002C6
:100C20006DE371E0C7010E94EE026DE271E0C70161
:100C30000E94EE020E9497016B017C012B013C0196
:100C400045E0440E511C611C711C0E9497016C15FB
:100C50007D058E059F0508F03FC00E9497016093B7
:100C60003302709334028093350290933602809160
:100C70008A0190918B01019690938B0180938A0158
:100C80000E94A3010E94E9018091820190E090936B
:100C900089018093880164E471E080E991E00E9419
:100CA000800380918A0190918B010E944C036FE434
:100CB00071E080E991E00E94800380918801909129
:100CC00089010E944C0366E571E080E991E00E9491
:100CD00080030E948D01ADCE461657066806790640
:100CE00008F0B3CFBACFA1E21A2EAA1BBB1BFD019D
:100CF0000DC0AA1FBB1FEE1FFF1FA217B307E407FB
:100D0000F50720F0A21BB30BE40BF50B661F771F52
:100D1000881F991F1A9469F7609570958095909532
:100D20009B01AC01BD01CF01089597FB072E16F47E
:100D3000009407D077FD09D00E94A90607FC05D0D2
:100D40003EF4909581959F4F0895709561957F4FE2
:100D50000895AA1BBB1B51E107C0AA1FBB1FA61702
:100D6000B70710F0A61BB70B881F991F5A95A9F754
:100D700080959095BC01CD010895EE0FFF1F059061
:100D8000F491E02D099481E090E0F8940C94C80669
:040D9000F894FFCF05
:100D94001F1C1F1E1F1E1F1F1E1F1E1F00000000E2
:100DA4001E018700B5006B01E600C400D800564D53
:100DB4004450565F317C315F564D4450560D0A0005
:100DC400564D4450455F003A323A007C005F564D20
:100DD40044504500436F6E7461646F723A2000544E
:100DE400696D653A20002D2D2D2D2D2D2D2D2D2DA8
:0C0DF4002D2D2D2D2D2D2D2D2D2D0A0027
:00000001FF
